{
  "contractName": "Escrow",
  "abi": [
    {
      "inputs": [
        {
          "internalType": "address payable",
          "name": "_seller",
          "type": "address"
        },
        {
          "internalType": "address payable",
          "name": "_solver",
          "type": "address"
        },
        {
          "internalType": "string",
          "name": "item_id",
          "type": "string"
        }
      ],
      "payable": true,
      "stateMutability": "payable",
      "type": "constructor"
    },
    {
      "anonymous": false,
      "inputs": [],
      "name": "Aborted",
      "type": "event"
    },
    {
      "anonymous": false,
      "inputs": [],
      "name": "ItemNotOk",
      "type": "event"
    },
    {
      "anonymous": false,
      "inputs": [],
      "name": "ItemReceived",
      "type": "event"
    },
    {
      "anonymous": false,
      "inputs": [],
      "name": "PurchaseConfirmed",
      "type": "event"
    },
    {
      "anonymous": false,
      "inputs": [],
      "name": "Refund",
      "type": "event"
    },
    {
      "anonymous": false,
      "inputs": [],
      "name": "Sent",
      "type": "event"
    },
    {
      "constant": true,
      "inputs": [],
      "name": "admin",
      "outputs": [
        {
          "internalType": "address payable",
          "name": "",
          "type": "address"
        }
      ],
      "payable": false,
      "stateMutability": "view",
      "type": "function"
    },
    {
      "constant": true,
      "inputs": [],
      "name": "buyer",
      "outputs": [
        {
          "internalType": "address payable",
          "name": "",
          "type": "address"
        }
      ],
      "payable": false,
      "stateMutability": "view",
      "type": "function"
    },
    {
      "constant": true,
      "inputs": [],
      "name": "description",
      "outputs": [
        {
          "internalType": "uint256",
          "name": "",
          "type": "uint256"
        }
      ],
      "payable": false,
      "stateMutability": "view",
      "type": "function"
    },
    {
      "constant": true,
      "inputs": [],
      "name": "item",
      "outputs": [
        {
          "internalType": "string",
          "name": "",
          "type": "string"
        }
      ],
      "payable": false,
      "stateMutability": "view",
      "type": "function"
    },
    {
      "constant": true,
      "inputs": [],
      "name": "problem_description",
      "outputs": [
        {
          "internalType": "string",
          "name": "",
          "type": "string"
        }
      ],
      "payable": false,
      "stateMutability": "view",
      "type": "function"
    },
    {
      "constant": true,
      "inputs": [],
      "name": "reward",
      "outputs": [
        {
          "internalType": "uint256",
          "name": "",
          "type": "uint256"
        }
      ],
      "payable": false,
      "stateMutability": "view",
      "type": "function"
    },
    {
      "constant": true,
      "inputs": [],
      "name": "seller",
      "outputs": [
        {
          "internalType": "address payable",
          "name": "",
          "type": "address"
        }
      ],
      "payable": false,
      "stateMutability": "view",
      "type": "function"
    },
    {
      "constant": true,
      "inputs": [],
      "name": "solver",
      "outputs": [
        {
          "internalType": "address payable",
          "name": "",
          "type": "address"
        }
      ],
      "payable": false,
      "stateMutability": "view",
      "type": "function"
    },
    {
      "constant": true,
      "inputs": [],
      "name": "state",
      "outputs": [
        {
          "internalType": "enum Escrow.State",
          "name": "",
          "type": "uint8"
        }
      ],
      "payable": false,
      "stateMutability": "view",
      "type": "function"
    },
    {
      "constant": true,
      "inputs": [],
      "name": "value",
      "outputs": [
        {
          "internalType": "uint256",
          "name": "",
          "type": "uint256"
        }
      ],
      "payable": false,
      "stateMutability": "view",
      "type": "function"
    },
    {
      "constant": false,
      "inputs": [],
      "name": "abort",
      "outputs": [],
      "payable": false,
      "stateMutability": "nonpayable",
      "type": "function"
    },
    {
      "constant": false,
      "inputs": [],
      "name": "sent",
      "outputs": [],
      "payable": false,
      "stateMutability": "nonpayable",
      "type": "function"
    },
    {
      "constant": false,
      "inputs": [],
      "name": "confirmReceived",
      "outputs": [],
      "payable": false,
      "stateMutability": "nonpayable",
      "type": "function"
    },
    {
      "constant": false,
      "inputs": [
        {
          "internalType": "string",
          "name": "_problem_description",
          "type": "string"
        }
      ],
      "name": "problem",
      "outputs": [],
      "payable": false,
      "stateMutability": "nonpayable",
      "type": "function"
    },
    {
      "constant": false,
      "inputs": [],
      "name": "refund",
      "outputs": [],
      "payable": false,
      "stateMutability": "nonpayable",
      "type": "function"
    },
    {
      "constant": false,
      "inputs": [],
      "name": "no_refund",
      "outputs": [],
      "payable": false,
      "stateMutability": "nonpayable",
      "type": "function"
    }
  ],
  "bytecode": "0x60806040526040516200124938038062001249833981810160405260608110156200002957600080fd5b810190808051906020019092919080519060200190929190805160405193929190846401000000008211156200005e57600080fd5b838201915060208201858111156200007557600080fd5b82518660018202830111640100000000821117156200009357600080fd5b8083526020830192505050908051906020019080838360005b83811015620000c9578082015181840152602081019050620000ac565b50505050905090810190601f168015620000f75780820380516001836020036101000a031916815260200191505b506040525050508060089080519060200190620001169291906200029a565b5082600360006101000a81548173ffffffffffffffffffffffffffffffffffffffff021916908373ffffffffffffffffffffffffffffffffffffffff16021790555081600560006101000a81548173ffffffffffffffffffffffffffffffffffffffff021916908373ffffffffffffffffffffffffffffffffffffffff16021790555073d36549d00d81f35f7e44d48a46a966616fb2f945600660006101000a81548173ffffffffffffffffffffffffffffffffffffffff021916908373ffffffffffffffffffffffffffffffffffffffff1602179055503460018190555033600460006101000a81548173ffffffffffffffffffffffffffffffffffffffff021916908373ffffffffffffffffffffffffffffffffffffffff160217905550603234816200024157fe5b04600081905550600660009054906101000a900473ffffffffffffffffffffffffffffffffffffffff1673ffffffffffffffffffffffffffffffffffffffff166002600054816200028e57fe5b50505050505062000349565b828054600181600116156101000203166002900490600052602060002090601f016020900481019282601f10620002dd57805160ff19168380011785556200030e565b828001600101855582156200030e579182015b828111156200030d578251825591602001919060010190620002f0565b5b5090506200031d919062000321565b5090565b6200034691905b808211156200034257600081600090555060010162000328565b5090565b90565b610ef080620003596000396000f3fe608060405234801561001057600080fd5b50600436106101005760003560e01c806373fac6f011610097578063c2bfccc011610066578063c2bfccc014610314578063d76312d51461031e578063f2a4a82e146103d9578063f851a4401461045c57610100565b806373fac6f0146102515780637be955271461025b57806398b22b07146102de578063c19d93fb146102e857610100565b806349a7a26d116100d357806349a7a26d14610195578063590e1ae3146101df5780637150d8ae146101e95780637284e4161461023357610100565b806308551a5314610105578063228cb7331461014f57806335a063b41461016d5780633fa4f24514610177575b600080fd5b61010d6104a6565b604051808273ffffffffffffffffffffffffffffffffffffffff1673ffffffffffffffffffffffffffffffffffffffff16815260200191505060405180910390f35b6101576104cc565b6040518082815260200191505060405180910390f35b6101756104d2565b005b61017f6105c0565b6040518082815260200191505060405180910390f35b61019d6105c6565b604051808273ffffffffffffffffffffffffffffffffffffffff1673ffffffffffffffffffffffffffffffffffffffff16815260200191505060405180910390f35b6101e76105ec565b005b6101f16107a0565b604051808273ffffffffffffffffffffffffffffffffffffffff1673ffffffffffffffffffffffffffffffffffffffff16815260200191505060405180910390f35b61023b6107c6565b6040518082815260200191505060405180910390f35b6102596107cc565b005b610263610915565b6040518080602001828103825283818151815260200191508051906020019080838360005b838110156102a3578082015181840152602081019050610288565b50505050905090810190601f1680156102d05780820380516001836020036101000a031916815260200191505b509250505060405180910390f35b6102e66109b3565b005b6102f0610b67565b6040518082600381111561030057fe5b60ff16815260200191505060405180910390f35b61031c610b7a565b005b6103d76004803603602081101561033457600080fd5b810190808035906020019064010000000081111561035157600080fd5b82018360208201111561036357600080fd5b8035906020019184600183028401116401000000008311171561038557600080fd5b91908080601f016020809104026020016040519081016040528093929190818152602001838380828437600081840152601f19601f820116905080830192505050505050509192919290505050610c5a565b005b6103e1610d52565b6040518080602001828103825283818151815260200191508051906020019080838360005b83811015610421578082015181840152602081019050610406565b50505050905090810190601f16801561044e5780820380516001836020036101000a031916815260200191505b509250505060405180910390f35b610464610df0565b604051808273ffffffffffffffffffffffffffffffffffffffff1673ffffffffffffffffffffffffffffffffffffffff16815260200191505060405180910390f35b600360009054906101000a900473ffffffffffffffffffffffffffffffffffffffff1681565b60005481565b600460009054906101000a900473ffffffffffffffffffffffffffffffffffffffff1673ffffffffffffffffffffffffffffffffffffffff163373ffffffffffffffffffffffffffffffffffffffff161461052c57600080fd5b600080600381111561053a57fe5b600960009054906101000a900460ff16600381111561055557fe5b1461055f57600080fd5b7f72c874aeff0b183a56e2b79c71b46e1aed4dee5e09862134b8821ba2fddbf8bf60405160405180910390a16003600960006101000a81548160ff021916908360038111156105aa57fe5b0217905550600460009054906101000a90505050565b60015481565b600560009054906101000a900473ffffffffffffffffffffffffffffffffffffffff1681565b600560009054906101000a900473ffffffffffffffffffffffffffffffffffffffff1673ffffffffffffffffffffffffffffffffffffffff163373ffffffffffffffffffffffffffffffffffffffff161461064657600080fd5b600280600381111561065457fe5b600960009054906101000a900460ff16600381111561066f57fe5b1461067957600080fd5b7f5d26862916391bf49478b2f5103b0720a842b45ef145a268f2cd1fb2aed5517860405160405180910390a16003600960006101000a81548160ff021916908360038111156106c457fe5b0217905550600560009054906101000a900473ffffffffffffffffffffffffffffffffffffffff1673ffffffffffffffffffffffffffffffffffffffff166108fc6000549081150290604051600060405180830381858888f19350505050158015610733573d6000803e3d6000fd5b50600460009054906101000a900473ffffffffffffffffffffffffffffffffffffffff1673ffffffffffffffffffffffffffffffffffffffff166108fc479081150290604051600060405180830381858888f1935050505015801561079c573d6000803e3d6000fd5b5050565b600460009054906101000a900473ffffffffffffffffffffffffffffffffffffffff1681565b60025481565b600460009054906101000a900473ffffffffffffffffffffffffffffffffffffffff1673ffffffffffffffffffffffffffffffffffffffff163373ffffffffffffffffffffffffffffffffffffffff161461082657600080fd5b600180600381111561083457fe5b600960009054906101000a900460ff16600381111561084f57fe5b1461085957600080fd5b7fe89152acd703c9d8c7d28829d443260b411454d45394e7995815140c8cbcbcf760405160405180910390a16003600960006101000a81548160ff021916908360038111156108a457fe5b0217905550600360009054906101000a900473ffffffffffffffffffffffffffffffffffffffff1673ffffffffffffffffffffffffffffffffffffffff166108fc479081150290604051600060405180830381858888f19350505050158015610911573d6000803e3d6000fd5b5050565b60078054600181600116156101000203166002900480601f0160208091040260200160405190810160405280929190818152602001828054600181600116156101000203166002900480156109ab5780601f10610980576101008083540402835291602001916109ab565b820191906000526020600020905b81548152906001019060200180831161098e57829003601f168201915b505050505081565b600560009054906101000a900473ffffffffffffffffffffffffffffffffffffffff1673ffffffffffffffffffffffffffffffffffffffff163373ffffffffffffffffffffffffffffffffffffffff1614610a0d57600080fd5b6002806003811115610a1b57fe5b600960009054906101000a900460ff166003811115610a3657fe5b14610a4057600080fd5b7fe89152acd703c9d8c7d28829d443260b411454d45394e7995815140c8cbcbcf760405160405180910390a16003600960006101000a81548160ff02191690836003811115610a8b57fe5b0217905550600560009054906101000a900473ffffffffffffffffffffffffffffffffffffffff1673ffffffffffffffffffffffffffffffffffffffff166108fc6000549081150290604051600060405180830381858888f19350505050158015610afa573d6000803e3d6000fd5b50600360009054906101000a900473ffffffffffffffffffffffffffffffffffffffff1673ffffffffffffffffffffffffffffffffffffffff166108fc479081150290604051600060405180830381858888f19350505050158015610b63573d6000803e3d6000fd5b5050565b600960009054906101000a900460ff1681565b600360009054906101000a900473ffffffffffffffffffffffffffffffffffffffff1673ffffffffffffffffffffffffffffffffffffffff163373ffffffffffffffffffffffffffffffffffffffff1614610bd457600080fd5b6000806003811115610be257fe5b600960009054906101000a900460ff166003811115610bfd57fe5b14610c0757600080fd5b7f407310595001f40cc5d78b385eeeb8b69fa22f4c4df5df2d85d0469a7e227c8d60405160405180910390a16001600960006101000a81548160ff02191690836003811115610c5257fe5b021790555050565b600460009054906101000a900473ffffffffffffffffffffffffffffffffffffffff1673ffffffffffffffffffffffffffffffffffffffff163373ffffffffffffffffffffffffffffffffffffffff1614610cb457600080fd5b6001806003811115610cc257fe5b600960009054906101000a900460ff166003811115610cdd57fe5b14610ce757600080fd5b7fe6584a05a162eb3daafc3f0f30bf10ae183176a14922546e63a920446150346f60405160405180910390a18160079080519060200190610d29929190610e16565b506002600960006101000a81548160ff02191690836003811115610d4957fe5b02179055505050565b60088054600181600116156101000203166002900480601f016020809104026020016040519081016040528092919081815260200182805460018160011615610100020316600290048015610de85780601f10610dbd57610100808354040283529160200191610de8565b820191906000526020600020905b815481529060010190602001808311610dcb57829003601f168201915b505050505081565b600660009054906101000a900473ffffffffffffffffffffffffffffffffffffffff1681565b828054600181600116156101000203166002900490600052602060002090601f016020900481019282601f10610e5757805160ff1916838001178555610e85565b82800160010185558215610e85579182015b82811115610e84578251825591602001919060010190610e69565b5b509050610e929190610e96565b5090565b610eb891905b80821115610eb4576000816000905550600101610e9c565b5090565b9056fea265627a7a72315820ed4fb57e58cb4f47b073ee1e314d06fddb3ff7acbc48b8b4a24cf2d68ae3da8f64736f6c63430005100032",
  "source": "pragma solidity >=0.4.22 <0.9.0;\n\ncontract Escrow {\n    uint public reward;\n    uint public value;\n    uint public description;\n    \n    address payable public seller;\n    address payable public buyer;\n    address payable public solver;\n    address payable public admin;\n    \n    string public problem_description;\n    string public item;\n    \n    enum State { Created, Locked, Troubled, Inactive }\n    State public state;\n\n    constructor(address payable _seller, address payable _solver, string memory item_id) public payable {\n        item = item_id;\n        seller = _seller;\n        solver = _solver; \n        admin = address(0xD36549D00D81F35f7e44d48A46A966616fB2f945);\n        value = msg.value;\n        buyer = msg.sender;\n        reward = msg.value / 50;\n        admin.call.value(reward / 2);\n    }\n    \n    modifier onlyBuyer() {\n        require(msg.sender == buyer);\n        _;\n    }\n\n    modifier onlySeller() {\n        require(msg.sender == seller);\n        _;\n    }\n    \n    modifier onlySolver() {\n        require(msg.sender == solver);\n        _;\n    }\n\n    modifier inState(State _state) {\n        require(state == _state);\n        _;\n    }\n    \n    event Aborted();\n    event PurchaseConfirmed();\n    event ItemReceived();\n    event Sent();\n    event ItemNotOk();\n    event Refund();\n\n    // Abort the purchase and reclaim the ether.\n    // Can only be called by the seller before\n    // the contract is locked.\n    function abort()\n        public\n        onlyBuyer\n        inState(State.Created)\n    {\n        emit Aborted();\n        state = State.Inactive;\n        buyer.call.value(address(this).balance);\n    }\n    \n    // Confirm that the seller have sent the item.\n    // This will lock ether.\n    function sent()\n        public\n        onlySeller\n        inState(State.Created)\n    {\n        emit Sent();\n        state = State.Locked;\n    }\n    \n    // Confirm that the buyer received the item.\n    // This will release the locked ether.\n    function confirmReceived()\n        public\n        onlyBuyer\n        inState(State.Locked)\n    {\n        emit ItemReceived();\n        // It is important to change the state first because\n        // otherwise, the contracts called using `send` below\n        // can call in again here.\n        state = State.Inactive;\n\n        // NOTE: This actually allows both the buyer and the seller to\n        // block the refund - the withdraw pattern should be used.\n        seller.transfer(address(this).balance);\n    }\n    \n    // The buyer can print description of a problem with the item\n    // in order to solver to see it and make a decision whether\n    // the refund should be payed or not.\n    function problem(string memory _problem_description)\n        public\n        onlyBuyer\n        inState(State.Locked)\n    {    \n        emit ItemNotOk();\n        problem_description = _problem_description;\n        state = State.Troubled;\n    }\n    \n    // Solver can return the transfer back to the buyer.\n    function refund()\n        public\n        onlySolver\n        inState(State.Troubled)\n    {    \n        emit Refund();\n        state = State.Inactive;\n        solver.transfer(reward);\n        buyer.transfer(address(this).balance);\n    }\n    \n    // Solver can transfer the payment to the seller.\n    function no_refund()\n        public\n        onlySolver\n        inState(State.Troubled)\n    {    \n        emit ItemReceived();\n        state = State.Inactive;\n        solver.transfer(reward);\n        seller.transfer(address(this).balance);\n    }\n}",
  "sourcePath": "/home/serhio/repos/SmartContract/truffle/contracts/Escrow.sol",
  "compiler": {
    "name": "solc",
    "version": "0.5.16+commit.9c3226ce.Emscripten.clang"
  },
  "schemaVersion": "3.3.4",
  "updatedAt": "2021-03-24T07:04:24.065Z",
  "devdoc": {
    "methods": {}
  },
  "userdoc": {
    "methods": {}
  }
}